{
  "transactions": [
    {
      "hash": "0x87d80f8b5cb5a7dc7d84a7e6302370a7c7d4546812d96b71b0c79d8397432d85",
      "transactionType": "CALL",
      "contractName": null,
      "contractAddress": "0x2023Ccfd65cE64889fE450d34363539a1C7fdB99",
      "function": "setMerkleRoot(uint256,bytes32)",
      "arguments": [
        "0",
        "0x36f26ef4ac5d1bd18676a10f5a1ab3a4c37affa40bc32aea53513f7475177bb2"
      ],
      "transaction": {
        "type": "0x02",
        "from": "0x50721fa72783d42d54e17b17546960305aa7f626",
        "to": "0x2023ccfd65ce64889fe450d34363539a1c7fdb99",
        "gas": "0xf9ba",
        "value": "0x0",
        "data": "0x18712c21000000000000000000000000000000000000000000000000000000000000000036f26ef4ac5d1bd18676a10f5a1ab3a4c37affa40bc32aea53513f7475177bb2",
        "nonce": "0x70",
        "accessList": []
      },
      "additionalContracts": [],
      "isFixedGasLimit": false
    }
  ],
  "receipts": [],
  "libraries": [],
  "pending": [
    "0x87d80f8b5cb5a7dc7d84a7e6302370a7c7d4546812d96b71b0c79d8397432d85"
  ],
  "returns": {},
  "timestamp": 1718255358,
  "chain": 22776,
  "multi": false,
  "commit": "fdb2741"
}