{
  "transactions": [
    {
      "hash": "0x0148db439aece8024077c2e9127f8318c03ae61f7bd908ac3feb29f9549c3559",
      "transactionType": "CALL",
      "contractName": null,
      "contractAddress": "0x2023Ccfd65cE64889fE450d34363539a1C7fdB99",
      "function": "setMerkleRoot(uint256,bytes32)",
      "arguments": [
        "2",
        "0x36f26ef4ac5d1bd18676a10f5a1ab3a4c37affa40bc32aea53513f7475177bb2"
      ],
      "transaction": {
        "type": "0x02",
        "from": "0x50721fa72783d42d54e17b17546960305aa7f626",
        "to": "0x2023ccfd65ce64889fe450d34363539a1c7fdb99",
        "gas": "0x1087d",
        "value": "0x0",
        "data": "0x18712c21000000000000000000000000000000000000000000000000000000000000000236f26ef4ac5d1bd18676a10f5a1ab3a4c37affa40bc32aea53513f7475177bb2",
        "nonce": "0x7b",
        "accessList": []
      },
      "additionalContracts": [],
      "isFixedGasLimit": false
    }
  ],
  "receipts": [
    {
      "transactionHash": "0x0148db439aece8024077c2e9127f8318c03ae61f7bd908ac3feb29f9549c3559",
      "transactionIndex": "0x3",
      "blockHash": "0x853bbc4ba8a3deaef59b14d0177b066bae339b2dd64a2b9c6cf76a7ff98c5f5b",
      "blockNumber": "0xc212b7",
      "from": "0x50721FA72783D42D54e17b17546960305Aa7F626",
      "to": "0x2023Ccfd65cE64889fE450d34363539a1C7fdB99",
      "cumulativeGasUsed": "0x581c2",
      "gasUsed": "0xb4d9",
      "contractAddress": null,
      "logs": [],
      "status": "0x1",
      "logsBloom": "0x00000000000000000000000000000000000000000000000000000000000000000000000000000000000000000000000000000000000000000000000000000000000000000000000000000000000000000000000000000000000000000000000000000000000000000000000000000000000000000000000000000000000000000000000000000000000000000000000000000000000000000000000000000000000000000000000000000000000000000000000000000000000000000000000000000000000000000000000000000000000000000000000000000000000000000000000000000000000000000000000000000000000000000000000000000000",
      "type": "0x2",
      "effectiveGasPrice": "0x1954582007e"
    }
  ],
  "libraries": [],
  "pending": [],
  "returns": {},
  "timestamp": 1720761703,
  "chain": 22776,
  "multi": false,
  "commit": "fdb2741"
}