{
  "transactions": [
    {
      "hash": "0x671e9c1a1ffdb7411d21807aba13aeac9fbaf4baf93deb9f1dd8bedcfd0c3452",
      "transactionType": "CALL",
      "contractName": null,
      "contractAddress": "0x2023Ccfd65cE64889fE450d34363539a1C7fdB99",
      "function": "setMerkleRoot(uint256,bytes32)",
      "arguments": [
        "1",
        "0x36f26ef4ac5d1bd18676a10f5a1ab3a4c37affa40bc32aea53513f7475177bb2"
      ],
      "transaction": {
        "type": "0x02",
        "from": "0x50721fa72783d42d54e17b17546960305aa7f626",
        "to": "0x2023ccfd65ce64889fe450d34363539a1c7fdb99",
        "gas": "0x1087d",
        "value": "0x0",
        "data": "0x18712c21000000000000000000000000000000000000000000000000000000000000000136f26ef4ac5d1bd18676a10f5a1ab3a4c37affa40bc32aea53513f7475177bb2",
        "nonce": "0x74",
        "accessList": []
      },
      "additionalContracts": [],
      "isFixedGasLimit": false
    }
  ],
  "receipts": [
    {
      "transactionHash": "0x671e9c1a1ffdb7411d21807aba13aeac9fbaf4baf93deb9f1dd8bedcfd0c3452",
      "transactionIndex": "0x1",
      "blockHash": "0x87cd84bcd3fd4698e0bcb5a08a21957a3b3e3f80ad1e585405efed9548030710",
      "blockNumber": "0xbdf768",
      "from": "0x50721FA72783D42D54e17b17546960305Aa7F626",
      "to": "0x2023Ccfd65cE64889fE450d34363539a1C7fdB99",
      "cumulativeGasUsed": "0x1d98b5",
      "gasUsed": "0xb4d9",
      "contractAddress": null,
      "logs": [],
      "status": "0x1",
      "logsBloom": "0x00000000000000000000000000000000000000000000000000000000000000000000000000000000000000000000000000000000000000000000000000000000000000000000000000000000000000000000000000000000000000000000000000000000000000000000000000000000000000000000000000000000000000000000000000000000000000000000000000000000000000000000000000000000000000000000000000000000000000000000000000000000000000000000000000000000000000000000000000000000000000000000000000000000000000000000000000000000000000000000000000000000000000000000000000000000",
      "type": "0x2",
      "effectiveGasPrice": "0x2540be4000"
    }
  ],
  "libraries": [],
  "pending": [],
  "returns": {},
  "timestamp": 1719403497,
  "chain": 22776,
  "multi": false,
  "commit": "fdb2741"
}