{
  "transactions": [
    {
      "hash": "0x26d893fc2a64bdaf70d873c8de527d3c1e6b1ff96221c1ce34ff072904c4c838",
      "transactionType": "CALL",
      "contractName": null,
      "contractAddress": "0xeAC16fD5cD994801250fc2156Cd442c36F3783b4",
      "function": null,
      "arguments": null,
      "transaction": {
        "type": "0x02",
        "from": "0x0e367ce43859b170ef7dc147ce83e2e5ea8a6fbe",
        "to": "0xeac16fd5cd994801250fc2156cd442c36f3783b4",
        "gas": "0xac7e",
        "value": "0x0",
        "data": "0xcf242849000000000000000000000000373118b4077358bf3495c4c6f9f5d9640453c476",
        "nonce": "0xbd",
        "accessList": []
      },
      "additionalContracts": [],
      "isFixedGasLimit": false
    },
    {
      "hash": "0x7633c4b77beb571c66bd57d52f0b08b08a094b4a4b00c487ac5957521365d4fd",
      "transactionType": "CALL",
      "contractName": null,
      "contractAddress": "0x01a960E07B25ea39B21F1E498722f19Fb3F0Ecc3",
      "function": "approve(address,uint256)",
      "arguments": [
        "0xeAC16fD5cD994801250fc2156Cd442c36F3783b4",
        "115792089237316195423570985008687907853269984665640564039457584007913129639935"
      ],
      "transaction": {
        "type": "0x02",
        "from": "0x0e367ce43859b170ef7dc147ce83e2e5ea8a6fbe",
        "to": "0x01a960e07b25ea39b21f1e498722f19fb3f0ecc3",
        "gas": "0x9080",
        "value": "0x0",
        "data": "0x095ea7b3000000000000000000000000eac16fd5cd994801250fc2156cd442c36f3783b4ffffffffffffffffffffffffffffffffffffffffffffffffffffffffffffffff",
        "nonce": "0xbe",
        "accessList": []
      },
      "additionalContracts": [],
      "isFixedGasLimit": false
    },
    {
      "hash": "0x26a5fa8173c092cdd47d0418f66cabdd41c48ed3623ab6f35a36d661a75c2d29",
      "transactionType": "CALL",
      "contractName": null,
      "contractAddress": "0xeAC16fD5cD994801250fc2156Cd442c36F3783b4",
      "function": null,
      "arguments": null,
      "transaction": {
        "type": "0x02",
        "from": "0x0e367ce43859b170ef7dc147ce83e2e5ea8a6fbe",
        "to": "0xeac16fd5cd994801250fc2156cd442c36f3783b4",
        "gas": "0xbcff",
        "value": "0x0",
        "data": "0x718da7ee0000000000000000000000000e367ce43859b170ef7dc147ce83e2e5ea8a6fbe",
        "nonce": "0xbf",
        "accessList": []
      },
      "additionalContracts": [],
      "isFixedGasLimit": false
    }
  ],
  "receipts": [],
  "libraries": [],
  "pending": [
    "0x26d893fc2a64bdaf70d873c8de527d3c1e6b1ff96221c1ce34ff072904c4c838",
    "0x7633c4b77beb571c66bd57d52f0b08b08a094b4a4b00c487ac5957521365d4fd",
    "0x26a5fa8173c092cdd47d0418f66cabdd41c48ed3623ab6f35a36d661a75c2d29"
  ],
  "returns": {},
  "timestamp": 1706583241,
  "chain": 22776,
  "multi": false,
  "commit": "ad7371c"
}