{
  "transactions": [
    {
      "hash": "0xd1101d131d584c07caf2a1fc64ad498e0ff1975de958edf9ce1d7b747db1e75e",
      "transactionType": "CALL",
      "contractName": null,
      "contractAddress": "0x01a960E07B25ea39B21F1E498722f19Fb3F0Ecc3",
      "function": "approve(address,uint256)",
      "arguments": [
        "0xeAC16fD5cD994801250fc2156Cd442c36F3783b4",
        "115792089237316195423570985008687907853269984665640564039457584007913129639935"
      ],
      "transaction": {
        "type": "0x02",
        "from": "0x0e367ce43859b170ef7dc147ce83e2e5ea8a6fbe",
        "to": "0x01a960e07b25ea39b21f1e498722f19fb3f0ecc3",
        "gas": "0x10ab1",
        "value": "0x0",
        "data": "0x095ea7b3000000000000000000000000eac16fd5cd994801250fc2156cd442c36f3783b4ffffffffffffffffffffffffffffffffffffffffffffffffffffffffffffffff",
        "nonce": "0x6f",
        "accessList": []
      },
      "additionalContracts": [],
      "isFixedGasLimit": false
    },
    {
      "hash": "0x04e38f918d771ce52a91cf91f59c06f11efa68ef383852a177b8fbcc522220d7",
      "transactionType": "CALL",
      "contractName": null,
      "contractAddress": "0xeAC16fD5cD994801250fc2156Cd442c36F3783b4",
      "function": null,
      "arguments": null,
      "transaction": {
        "type": "0x02",
        "from": "0x0e367ce43859b170ef7dc147ce83e2e5ea8a6fbe",
        "to": "0xeac16fd5cd994801250fc2156cd442c36f3783b4",
        "gas": "0x11dde",
        "value": "0x0",
        "data": "0x718da7ee0000000000000000000000000e367ce43859b170ef7dc147ce83e2e5ea8a6fbe",
        "nonce": "0x70",
        "accessList": []
      },
      "additionalContracts": [],
      "isFixedGasLimit": false
    }
  ],
  "receipts": [
    {
      "transactionHash": "0xd1101d131d584c07caf2a1fc64ad498e0ff1975de958edf9ce1d7b747db1e75e",
      "transactionIndex": "0x0",
      "blockHash": "0x120adfd12d3f23544f0bcbc86e6f30b781e10329285df5d3cdaaa81d045ca5bd",
      "blockNumber": "0x966f27",
      "from": "0x0e367ce43859B170EF7DC147CE83e2e5ea8A6fbe",
      "to": "0x01a960E07B25ea39B21F1E498722f19Fb3F0Ecc3",
      "cumulativeGasUsed": "0xb65b",
      "gasUsed": "0xb65b",
      "contractAddress": null,
      "logs": [
        {
          "address": "0x01a960E07B25ea39B21F1E498722f19Fb3F0Ecc3",
          "topics": [
            "0x8c5be1e5ebec7d5bd14f71427d1e84f3dd0314c0f7b2291e5b200ac8c7c3b925",
            "0x0000000000000000000000000e367ce43859b170ef7dc147ce83e2e5ea8a6fbe",
            "0x000000000000000000000000eac16fd5cd994801250fc2156cd442c36f3783b4"
          ],
          "data": "0xffffffffffffffffffffffffffffffffffffffffffffffffffffffffffffffff",
          "blockHash": "0x120adfd12d3f23544f0bcbc86e6f30b781e10329285df5d3cdaaa81d045ca5bd",
          "blockNumber": "0x966f27",
          "transactionHash": "0xd1101d131d584c07caf2a1fc64ad498e0ff1975de958edf9ce1d7b747db1e75e",
          "transactionIndex": "0x0",
          "logIndex": "0x0",
          "removed": false
        }
      ],
      "status": "0x1",
      "logsBloom": "0x00000000000000000000000000000000000000000000000000000000000000000000010000000000000000000000000002000000000000000000000000200000000000000000010000080000000000000000000000000000000000000000000000000000000000000000000000000000000000000000000000000000000000000000000002000000000000000000040000000000000000000000000000000000020000000000100000000000000000000000100000000000000000000000000000000000000000000000000000000000000000000000000000000000000000000810000000000000000000000000000000000000000000000000000000000000",
      "type": "0x2",
      "effectiveGasPrice": "0x3eea223aaa"
    },
    {
      "transactionHash": "0x04e38f918d771ce52a91cf91f59c06f11efa68ef383852a177b8fbcc522220d7",
      "transactionIndex": "0x1",
      "blockHash": "0x120adfd12d3f23544f0bcbc86e6f30b781e10329285df5d3cdaaa81d045ca5bd",
      "blockNumber": "0x966f27",
      "from": "0x0e367ce43859B170EF7DC147CE83e2e5ea8A6fbe",
      "to": "0xeAC16fD5cD994801250fc2156Cd442c36F3783b4",
      "cumulativeGasUsed": "0x18552",
      "gasUsed": "0xcef7",
      "contractAddress": null,
      "logs": [
        {
          "address": "0xeAC16fD5cD994801250fc2156Cd442c36F3783b4",
          "topics": [
            "0x4a2963bfc20b87a0c055468a66e6638d57725e93fb4d65733fb2f25587ae8c4f"
          ],
          "data": "0x0000000000000000000000000e367ce43859b170ef7dc147ce83e2e5ea8a6fbe",
          "blockHash": "0x120adfd12d3f23544f0bcbc86e6f30b781e10329285df5d3cdaaa81d045ca5bd",
          "blockNumber": "0x966f27",
          "transactionHash": "0x04e38f918d771ce52a91cf91f59c06f11efa68ef383852a177b8fbcc522220d7",
          "transactionIndex": "0x1",
          "logIndex": "0x1",
          "removed": false
        }
      ],
      "status": "0x1",
      "logsBloom": "0x00000000000000000000000000000000000000000000000000000000000000000000000000000000000000000000000000000008000000000000000000000000000000000000000000000000000000000000000000000000000000000000000000000000000000000000002002000000000000000000000000000000000000000000400000000000000000000000000000000000000000000000000000000000000000000000000000000000000000000000000000000000000000000000000000000000000000000000000000000000000000000000000000000000000000000000000000000000000000000000000000800800000000000000000000000000",
      "type": "0x2",
      "effectiveGasPrice": "0x3eea223aaa"
    }
  ],
  "libraries": [],
  "pending": [],
  "returns": {},
  "timestamp": 1706173465,
  "chain": 22776,
  "multi": false,
  "commit": "ad7371c"
}