{
  "transactions": [
    {
      "hash": "0xd1101d131d584c07caf2a1fc64ad498e0ff1975de958edf9ce1d7b747db1e75e",
      "transactionType": "CALL",
      "contractName": null,
      "contractAddress": "0x01a960E07B25ea39B21F1E498722f19Fb3F0Ecc3",
      "function": "approve(address,uint256)",
      "arguments": [
        "0xeAC16fD5cD994801250fc2156Cd442c36F3783b4",
        "115792089237316195423570985008687907853269984665640564039457584007913129639935"
      ],
      "transaction": {
        "type": "0x02",
        "from": "0x0e367ce43859b170ef7dc147ce83e2e5ea8a6fbe",
        "to": "0x01a960e07b25ea39b21f1e498722f19fb3f0ecc3",
        "gas": "0x10ab1",
        "value": "0x0",
        "data": "0x095ea7b3000000000000000000000000eac16fd5cd994801250fc2156cd442c36f3783b4ffffffffffffffffffffffffffffffffffffffffffffffffffffffffffffffff",
        "nonce": "0x6f",
        "accessList": []
      },
      "additionalContracts": [],
      "isFixedGasLimit": false
    },
    {
      "hash": "0x04e38f918d771ce52a91cf91f59c06f11efa68ef383852a177b8fbcc522220d7",
      "transactionType": "CALL",
      "contractName": null,
      "contractAddress": "0xeAC16fD5cD994801250fc2156Cd442c36F3783b4",
      "function": null,
      "arguments": null,
      "transaction": {
        "type": "0x02",
        "from": "0x0e367ce43859b170ef7dc147ce83e2e5ea8a6fbe",
        "to": "0xeac16fd5cd994801250fc2156cd442c36f3783b4",
        "gas": "0x11dde",
        "value": "0x0",
        "data": "0x718da7ee0000000000000000000000000e367ce43859b170ef7dc147ce83e2e5ea8a6fbe",
        "nonce": "0x70",
        "accessList": []
      },
      "additionalContracts": [],
      "isFixedGasLimit": false
    }
  ],
  "receipts": [],
  "libraries": [],
  "pending": [
    "0xd1101d131d584c07caf2a1fc64ad498e0ff1975de958edf9ce1d7b747db1e75e",
    "0x04e38f918d771ce52a91cf91f59c06f11efa68ef383852a177b8fbcc522220d7"
  ],
  "returns": {},
  "timestamp": 1706173459,
  "chain": 22776,
  "multi": false,
  "commit": "ad7371c"
}