{
  "transactions": [
    {
      "hash": "0x26d893fc2a64bdaf70d873c8de527d3c1e6b1ff96221c1ce34ff072904c4c838",
      "transactionType": "CALL",
      "contractName": null,
      "contractAddress": "0xeAC16fD5cD994801250fc2156Cd442c36F3783b4",
      "function": null,
      "arguments": null,
      "transaction": {
        "type": "0x02",
        "from": "0x0e367ce43859b170ef7dc147ce83e2e5ea8a6fbe",
        "to": "0xeac16fd5cd994801250fc2156cd442c36f3783b4",
        "gas": "0xac7e",
        "value": "0x0",
        "data": "0xcf242849000000000000000000000000373118b4077358bf3495c4c6f9f5d9640453c476",
        "nonce": "0xbd",
        "accessList": []
      },
      "additionalContracts": [],
      "isFixedGasLimit": false
    },
    {
      "hash": "0x7633c4b77beb571c66bd57d52f0b08b08a094b4a4b00c487ac5957521365d4fd",
      "transactionType": "CALL",
      "contractName": null,
      "contractAddress": "0x01a960E07B25ea39B21F1E498722f19Fb3F0Ecc3",
      "function": "approve(address,uint256)",
      "arguments": [
        "0xeAC16fD5cD994801250fc2156Cd442c36F3783b4",
        "115792089237316195423570985008687907853269984665640564039457584007913129639935"
      ],
      "transaction": {
        "type": "0x02",
        "from": "0x0e367ce43859b170ef7dc147ce83e2e5ea8a6fbe",
        "to": "0x01a960e07b25ea39b21f1e498722f19fb3f0ecc3",
        "gas": "0x9080",
        "value": "0x0",
        "data": "0x095ea7b3000000000000000000000000eac16fd5cd994801250fc2156cd442c36f3783b4ffffffffffffffffffffffffffffffffffffffffffffffffffffffffffffffff",
        "nonce": "0xbe",
        "accessList": []
      },
      "additionalContracts": [],
      "isFixedGasLimit": false
    },
    {
      "hash": "0x26a5fa8173c092cdd47d0418f66cabdd41c48ed3623ab6f35a36d661a75c2d29",
      "transactionType": "CALL",
      "contractName": null,
      "contractAddress": "0xeAC16fD5cD994801250fc2156Cd442c36F3783b4",
      "function": null,
      "arguments": null,
      "transaction": {
        "type": "0x02",
        "from": "0x0e367ce43859b170ef7dc147ce83e2e5ea8a6fbe",
        "to": "0xeac16fd5cd994801250fc2156cd442c36f3783b4",
        "gas": "0xbcff",
        "value": "0x0",
        "data": "0x718da7ee0000000000000000000000000e367ce43859b170ef7dc147ce83e2e5ea8a6fbe",
        "nonce": "0xbf",
        "accessList": []
      },
      "additionalContracts": [],
      "isFixedGasLimit": false
    }
  ],
  "receipts": [
    {
      "transactionHash": "0x26d893fc2a64bdaf70d873c8de527d3c1e6b1ff96221c1ce34ff072904c4c838",
      "transactionIndex": "0x0",
      "blockHash": "0xc75c161092264cfa3bdeaa219395b93b30e4a65d58184c020e0a289f7d02fe8c",
      "blockNumber": "0x97af4a",
      "from": "0x0e367ce43859B170EF7DC147CE83e2e5ea8A6fbe",
      "to": "0xeAC16fD5cD994801250fc2156Cd442c36F3783b4",
      "cumulativeGasUsed": "0x75f2",
      "gasUsed": "0x75f2",
      "contractAddress": null,
      "logs": [
        {
          "address": "0xeAC16fD5cD994801250fc2156Cd442c36F3783b4",
          "topics": [
            "0x29e3e57b4a1e4513d009781598c7e4b8b2a68e4b71fe977e362d1b591016fade"
          ],
          "data": "0x000000000000000000000000373118b4077358bf3495c4c6f9f5d9640453c476",
          "blockHash": "0xc75c161092264cfa3bdeaa219395b93b30e4a65d58184c020e0a289f7d02fe8c",
          "blockNumber": "0x97af4a",
          "transactionHash": "0x26d893fc2a64bdaf70d873c8de527d3c1e6b1ff96221c1ce34ff072904c4c838",
          "transactionIndex": "0x0",
          "logIndex": "0x0",
          "removed": false
        }
      ],
      "status": "0x1",
      "logsBloom": "0x00000000000000000000000000000000000000000000000000000000000000000000000000000000000000000000000000000008000000000000000000000000000000000000000000000004000000000000000000000000080000000000000000000000000000000000000000000000000000000000000000000000000000000000400000000000000000000000000000000000000000000000000000000000000000000000000000000000000000000000000000000000000000000000000000000000000000000000000000000000000000000000000000000000000000000000000000000000000000000000000000000800000008000000000000000000",
      "type": "0x2",
      "effectiveGasPrice": "0x835d1022c9"
    },
    {
      "transactionHash": "0x7633c4b77beb571c66bd57d52f0b08b08a094b4a4b00c487ac5957521365d4fd",
      "transactionIndex": "0x1",
      "blockHash": "0xc75c161092264cfa3bdeaa219395b93b30e4a65d58184c020e0a289f7d02fe8c",
      "blockNumber": "0x97af4a",
      "from": "0x0e367ce43859B170EF7DC147CE83e2e5ea8A6fbe",
      "to": "0x01a960E07B25ea39B21F1E498722f19Fb3F0Ecc3",
      "cumulativeGasUsed": "0xde91",
      "gasUsed": "0x689f",
      "contractAddress": null,
      "logs": [
        {
          "address": "0x01a960E07B25ea39B21F1E498722f19Fb3F0Ecc3",
          "topics": [
            "0x8c5be1e5ebec7d5bd14f71427d1e84f3dd0314c0f7b2291e5b200ac8c7c3b925",
            "0x0000000000000000000000000e367ce43859b170ef7dc147ce83e2e5ea8a6fbe",
            "0x000000000000000000000000eac16fd5cd994801250fc2156cd442c36f3783b4"
          ],
          "data": "0xffffffffffffffffffffffffffffffffffffffffffffffffffffffffffffffff",
          "blockHash": "0xc75c161092264cfa3bdeaa219395b93b30e4a65d58184c020e0a289f7d02fe8c",
          "blockNumber": "0x97af4a",
          "transactionHash": "0x7633c4b77beb571c66bd57d52f0b08b08a094b4a4b00c487ac5957521365d4fd",
          "transactionIndex": "0x1",
          "logIndex": "0x1",
          "removed": false
        }
      ],
      "status": "0x1",
      "logsBloom": "0x00000000000000000000000000000000000000000000000000000000000000000000010000000000000000000000000002000000000000000000000000200000000000000000010000080000000000000000000000000000000000000000000000000000000000000000000000000000000000000000000000000000000000000000000002000000000000000000040000000000000000000000000000000000020000000000100000000000000000000000100000000000000000000000000000000000000000000000000000000000000000000000000000000000000000000810000000000000000000000000000000000000000000000000000000000000",
      "type": "0x2",
      "effectiveGasPrice": "0x835d1022c9"
    },
    {
      "transactionHash": "0x26a5fa8173c092cdd47d0418f66cabdd41c48ed3623ab6f35a36d661a75c2d29",
      "transactionIndex": "0x2",
      "blockHash": "0xc75c161092264cfa3bdeaa219395b93b30e4a65d58184c020e0a289f7d02fe8c",
      "blockNumber": "0x97af4a",
      "from": "0x0e367ce43859B170EF7DC147CE83e2e5ea8A6fbe",
      "to": "0xeAC16fD5cD994801250fc2156Cd442c36F3783b4",
      "cumulativeGasUsed": "0x15fcc",
      "gasUsed": "0x813b",
      "contractAddress": null,
      "logs": [
        {
          "address": "0xeAC16fD5cD994801250fc2156Cd442c36F3783b4",
          "topics": [
            "0x4a2963bfc20b87a0c055468a66e6638d57725e93fb4d65733fb2f25587ae8c4f"
          ],
          "data": "0x0000000000000000000000000e367ce43859b170ef7dc147ce83e2e5ea8a6fbe",
          "blockHash": "0xc75c161092264cfa3bdeaa219395b93b30e4a65d58184c020e0a289f7d02fe8c",
          "blockNumber": "0x97af4a",
          "transactionHash": "0x26a5fa8173c092cdd47d0418f66cabdd41c48ed3623ab6f35a36d661a75c2d29",
          "transactionIndex": "0x2",
          "logIndex": "0x2",
          "removed": false
        }
      ],
      "status": "0x1",
      "logsBloom": "0x00000000000000000000000000000000000000000000000000000000000000000000000000000000000000000000000000000008000000000000000000000000000000000000000000000000000000000000000000000000000000000000000000000000000000000000002002000000000000000000000000000000000000000000400000000000000000000000000000000000000000000000000000000000000000000000000000000000000000000000000000000000000000000000000000000000000000000000000000000000000000000000000000000000000000000000000000000000000000000000000000800800000000000000000000000000",
      "type": "0x2",
      "effectiveGasPrice": "0x835d1022c9"
    }
  ],
  "libraries": [],
  "pending": [],
  "returns": {},
  "timestamp": 1706583247,
  "chain": 22776,
  "multi": false,
  "commit": "ad7371c"
}