{
  "transactions": [
    {
      "hash": "0x2bf8d27452639904045b8c6c3139b976ea907e04f9c27ea28d893da6b986777e",
      "transactionType": "CALL",
      "contractName": null,
      "contractAddress": "0x86fFCbC14D77Ed61D2D90F70c0eDbae3a64b419C",
      "function": null,
      "arguments": null,
      "transaction": {
        "type": "0x02",
        "from": "0x0e367ce43859b170ef7dc147ce83e2e5ea8a6fbe",
        "to": "0x86ffcbc14d77ed61d2d90f70c0edbae3a64b419c",
        "gas": "0xff2b",
        "value": "0x0",
        "data": "0xcf242849000000000000000000000000373118b4077358bf3495c4c6f9f5d9640453c476",
        "nonce": "0xc0",
        "accessList": []
      },
      "additionalContracts": [],
      "isFixedGasLimit": false
    },
    {
      "hash": "0x34c6c75ddbcc8d8c8fd23780ce80c99270e87e8485e625e6bfec23d671b70433",
      "transactionType": "CALL",
      "contractName": null,
      "contractAddress": "0x01a960E07B25ea39B21F1E498722f19Fb3F0Ecc3",
      "function": "approve(address,uint256)",
      "arguments": [
        "0x86fFCbC14D77Ed61D2D90F70c0eDbae3a64b419C",
        "115792089237316195423570985008687907853269984665640564039457584007913129639935"
      ],
      "transaction": {
        "type": "0x02",
        "from": "0x0e367ce43859b170ef7dc147ce83e2e5ea8a6fbe",
        "to": "0x01a960e07b25ea39b21f1e498722f19fb3f0ecc3",
        "gas": "0x10ab1",
        "value": "0x0",
        "data": "0x095ea7b300000000000000000000000086ffcbc14d77ed61d2d90f70c0edbae3a64b419cffffffffffffffffffffffffffffffffffffffffffffffffffffffffffffffff",
        "nonce": "0xc1",
        "accessList": []
      },
      "additionalContracts": [],
      "isFixedGasLimit": false
    },
    {
      "hash": "0x30b7cbd7053fe187749087cba7d15da57ad1673bc83c72ff0ef62f3c73927d93",
      "transactionType": "CALL",
      "contractName": null,
      "contractAddress": "0x86fFCbC14D77Ed61D2D90F70c0eDbae3a64b419C",
      "function": null,
      "arguments": null,
      "transaction": {
        "type": "0x02",
        "from": "0x0e367ce43859b170ef7dc147ce83e2e5ea8a6fbe",
        "to": "0x86ffcbc14d77ed61d2d90f70c0edbae3a64b419c",
        "gas": "0x11dde",
        "value": "0x0",
        "data": "0x718da7ee0000000000000000000000000e367ce43859b170ef7dc147ce83e2e5ea8a6fbe",
        "nonce": "0xc2",
        "accessList": []
      },
      "additionalContracts": [],
      "isFixedGasLimit": false
    }
  ],
  "receipts": [
    {
      "transactionHash": "0x2bf8d27452639904045b8c6c3139b976ea907e04f9c27ea28d893da6b986777e",
      "transactionIndex": "0x0",
      "blockHash": "0xcbac7be43da9a3715b549a5e2081ff3baa0435a0c5a5b2fa86111ab4a85225f3",
      "blockNumber": "0x97af62",
      "from": "0x0e367ce43859B170EF7DC147CE83e2e5ea8A6fbe",
      "to": "0x86fFCbC14D77Ed61D2D90F70c0eDbae3a64b419C",
      "cumulativeGasUsed": "0xb8be",
      "gasUsed": "0xb8be",
      "contractAddress": null,
      "logs": [
        {
          "address": "0x86fFCbC14D77Ed61D2D90F70c0eDbae3a64b419C",
          "topics": [
            "0x29e3e57b4a1e4513d009781598c7e4b8b2a68e4b71fe977e362d1b591016fade"
          ],
          "data": "0x000000000000000000000000373118b4077358bf3495c4c6f9f5d9640453c476",
          "blockHash": "0xcbac7be43da9a3715b549a5e2081ff3baa0435a0c5a5b2fa86111ab4a85225f3",
          "blockNumber": "0x97af62",
          "transactionHash": "0x2bf8d27452639904045b8c6c3139b976ea907e04f9c27ea28d893da6b986777e",
          "transactionIndex": "0x0",
          "logIndex": "0x0",
          "removed": false
        }
      ],
      "status": "0x1",
      "logsBloom": "0x00000000000000000000000000000000000000000000000000000000000000000000000000000000000000000000000000000000000000000000000000000000000000000000000000000004000000000000000000000000080000000000000000000000000000000000000000000000000000000000000000000000000000000000000000000000000000000000000000000000000000000000000000000000000000000000000000000000000000000000000000000080080000000000000000000000000000000000000000000000000000000000000000040000000000000000000000000000000000000000000000000000000008000000000000000000",
      "type": "0x2",
      "effectiveGasPrice": "0x835d1022c9"
    },
    {
      "transactionHash": "0x34c6c75ddbcc8d8c8fd23780ce80c99270e87e8485e625e6bfec23d671b70433",
      "transactionIndex": "0x1",
      "blockHash": "0xcbac7be43da9a3715b549a5e2081ff3baa0435a0c5a5b2fa86111ab4a85225f3",
      "blockNumber": "0x97af62",
      "from": "0x0e367ce43859B170EF7DC147CE83e2e5ea8A6fbe",
      "to": "0x01a960E07B25ea39B21F1E498722f19Fb3F0Ecc3",
      "cumulativeGasUsed": "0x16f19",
      "gasUsed": "0xb65b",
      "contractAddress": null,
      "logs": [
        {
          "address": "0x01a960E07B25ea39B21F1E498722f19Fb3F0Ecc3",
          "topics": [
            "0x8c5be1e5ebec7d5bd14f71427d1e84f3dd0314c0f7b2291e5b200ac8c7c3b925",
            "0x0000000000000000000000000e367ce43859b170ef7dc147ce83e2e5ea8a6fbe",
            "0x00000000000000000000000086ffcbc14d77ed61d2d90f70c0edbae3a64b419c"
          ],
          "data": "0xffffffffffffffffffffffffffffffffffffffffffffffffffffffffffffffff",
          "blockHash": "0xcbac7be43da9a3715b549a5e2081ff3baa0435a0c5a5b2fa86111ab4a85225f3",
          "blockNumber": "0x97af62",
          "transactionHash": "0x34c6c75ddbcc8d8c8fd23780ce80c99270e87e8485e625e6bfec23d671b70433",
          "transactionIndex": "0x1",
          "logIndex": "0x1",
          "removed": false
        }
      ],
      "status": "0x1",
      "logsBloom": "0x00000000000000000000000000000000000008000400000000000000000000000000010000000000000000000000000002000000000000000000000000200000000000000000010000000000000000000000000000000000000000000000000000000000000000000000000000000000000000000000000000000000000000000000000002000000000000000000040000000000000000000000000000000000020000000000000000000000000000000000100000000000000000000000000000000000000000000000000000000000000000000000000000000000000000000010000000000000000000000000000000000000000000000000000000080000",
      "type": "0x2",
      "effectiveGasPrice": "0x835d1022c9"
    },
    {
      "transactionHash": "0x30b7cbd7053fe187749087cba7d15da57ad1673bc83c72ff0ef62f3c73927d93",
      "transactionIndex": "0x2",
      "blockHash": "0xcbac7be43da9a3715b549a5e2081ff3baa0435a0c5a5b2fa86111ab4a85225f3",
      "blockNumber": "0x97af62",
      "from": "0x0e367ce43859B170EF7DC147CE83e2e5ea8A6fbe",
      "to": "0x86fFCbC14D77Ed61D2D90F70c0eDbae3a64b419C",
      "cumulativeGasUsed": "0x23e10",
      "gasUsed": "0xcef7",
      "contractAddress": null,
      "logs": [
        {
          "address": "0x86fFCbC14D77Ed61D2D90F70c0eDbae3a64b419C",
          "topics": [
            "0x4a2963bfc20b87a0c055468a66e6638d57725e93fb4d65733fb2f25587ae8c4f"
          ],
          "data": "0x0000000000000000000000000e367ce43859b170ef7dc147ce83e2e5ea8a6fbe",
          "blockHash": "0xcbac7be43da9a3715b549a5e2081ff3baa0435a0c5a5b2fa86111ab4a85225f3",
          "blockNumber": "0x97af62",
          "transactionHash": "0x30b7cbd7053fe187749087cba7d15da57ad1673bc83c72ff0ef62f3c73927d93",
          "transactionIndex": "0x2",
          "logIndex": "0x2",
          "removed": false
        }
      ],
      "status": "0x1",
      "logsBloom": "0x00000000000000000000000000000000000000000000000000000000000000000000000000000000000000000000000000000000000000000000000000000000000000000000000000000000000000000000000000000000000000000000000000000000000000000000002002000000000000000000000000000000000000000000000000000000000000000000000000000000000000000000000000000000000000000000000000000000000000000000000000000080080000000000000000000000000000000000000000000000000000000000000000040000000000000000000000000000000000000000000000800000000000000000000000000000",
      "type": "0x2",
      "effectiveGasPrice": "0x835d1022c9"
    }
  ],
  "libraries": [],
  "pending": [],
  "returns": {},
  "timestamp": 1706583369,
  "chain": 22776,
  "multi": false,
  "commit": "ad7371c"
}